:1000000014C0189518951895189518954DC31895FE
:100010001895189518951895189518951895189578
:10002000189518951895189518958FE58DBFC0E40B
:10003000E6E24E2E81E08EBFD1E0F1E05F2EA89582
:1000400084B7082E877F84BF88E1992781BD91BD41
:10005000EEEFF0E0A0E6B0E088278D933197E9F766
:1000600066247FE972BB7FEF7BBB8D9A8FEF87BBE6
:1000700084E083BF80E080BF959A84E690E0DCD482
:100080009598E0E0F0E0A6E6B0E016D5E2E0F0E01A
:10009000A7E6B0E011D5E3E0F0E0A8E6B0E00CD5CB
:1000A000E4E0F0E0A9E6B0E007D580B38095A3E6F0
:1000B000B0E08C93A3E6B0E08C918F718C930091AB
:1000C0006600013081E008F480E08F9300916600C3
:1000D000023181E010F009F080E09F9189238823AC
:1000E00009F401C003C08FE18093630000916300B5
:1000F000003081E008F480E08F93009163000F30BE
:1001000081E010F009F080E09F918923882309F4B1
:1001100002C0EBC0D1C0003109F00AC0BFD30091CA
:10012000640041E2040FA6E6B0E00C93DEC0C4C058
:10013000013109F020C099D3B1D30091640001309E
:1001400009F00AC092D3E0E0F0E0A0E1BB2781E132
:100150008C937BE7A0D40EC0023009F00AC085D38F
:10016000E0E0F0E0A0E1BB2782E18C937BE793D451
:1001700001C0B3C0A1C0023109F010C08FD30091FB
:10018000640041E0040FA6E6B0E00C93E0E0F0E08C
:10019000A6E6B0E07BE77FD468D38EC0033109F0D8
:1001A0000FC07CD30091640041E0040FA7E6B0E0EB
:1001B0000C93E2E0F0E0A7E6B0E07BE76CD47CC013
:1001C000043109F00FC06AD30091640041E0040FCC
:1001D000A8E6B0E00C93E3E0F0E0A8E6B0E07BE74F
:1001E0005AD46AC0053109F01DC058D3009164008B
:1001F0000A3081E008F480E08F93009164000E30B3
:1002000081E010F009F080E09F918923882309F4B0
:1002100007C0E1E0F0E0A4E6B0E07BE73CD401C039
:100220005CC04AC0063109F01DC038D3009164009B
:10023000003081E008F480E08F9300916400013089
:1002400081E010F009F080E09F918923882309F470
:1002500007C0E4E0F0E0A4E6B0E07BE71CD401C016
:100260003CC02AC00E3109F009C081E080936C00C7
:10027000ABE6B0E081B78C9338C01EC00F3109F0F7
:100280001AC0F3D2E4E0F0E0A0E1BB2780E08C9359
:100290007BE701D4E5E0F0E0A0E1BB2780E08C93B0
:1002A0007BE7F9D3E0E0F0E0A0E1BB2781E18C93AC
:1002B0007BE7F1D301C011C0959A84E690E0BCD3EE
:1002C000959884E690E0B8D3959A84E690E0B4D30C
:1002D0009598E1E0F0E07FD3EFCF82B390E28927F9
:1002E00082BB82E490E0A8D3F8CFE5E0F0E0AAE694
:1002F000B0E0E2D300916A00013081E008F480E0D0
:100300008F9300916A000F3081E010F009F080E0D7
:100310009F918923882309F40CC001B740916A009A
:10032000040FAAE6B0E00C9300916A0048E0041BB9
:1003300001BF71E07FBD00916700003010F009F04F
:1003400001C003C07FB570627FBD009168000030BE
:1003500010F009F001C003C07FB570687FBDE1E017
:10036000F0E0A0E1B0E0A8D30A3009F003C075E0E6
:100370007EBD14C00C3009F003C073E07EBD0EC01A
:100380000D3009F003C072E07EBD08C00E3009F0E8
:1003900003C071E07EBD02C074E07EBD8E9879B767
:1003A000726079BF00916C00013009F001C090D2F9
:1003B00070EE72BF81E0809362007894709161006A
:1003C0007F7B70936100A1E6B0E08C9186FB0EF418
:1003D00005C0869B02C070EE72BFF5CF70916100C0
:1003E0007F777093610071E072BF82E0809362005A
:1003F000789431E0ADE6B0E01AD378E772BF83E0DD
:100400008093620036E1AEE6B0E011D388278C938A
:1004100032E0A5E8B0E00BD3F89400916D000F3006
:1004200009F001C005C070916100706870936100AF
:10043000A5E8B0E08C91807F8C930091850000301E
:1004400009F001C005C0709161007068709361008F
:1004500000918600003009F001C005C07091610074
:10046000706870936100A1E6B0E08C9187FB0EF09C
:1004700003C0959897CF01C0959A0091660001300E
:1004800081E008F480E08F9300916600003181E004
:1004900010F009F080E09F918923882309F406C0B9
:1004A000809166008093650050D1D1C0013109F080
:1004B00049C0AFE6B0E08C9182FBA7E8B0E08C9138
:1004C00080F98C93A0E7B0E08C9185FBA7E8B0E0C1
:1004D0008C9181F98C93A2E7B0E08C9180FBA7E826
:1004E000B0E08C9182F98C93A3E7B0E08C9183FB10
:1004F000A7E8B0E08C9183F98C93A4E7B0E08C91ED
:1005000086FBA7E8B0E08C9184F98C93A6E7B0E075
:100510008C9181FBA7E8B0E08C9185F98C93A7E7DB
:10052000B0E08C9184FBA7E8B0E08C9186F98C93C5
:10053000A8E7B0E08C9187FBA7E8B0E08C9187F941
:100540008C9385C0023109F049C0AAE7B0E08C91D4
:1005500082FBA7E8B0E08C9180F98C93ABE7B0E028
:100560008C9185FBA7E8B0E08C9181F98C93ADE785
:10057000B0E08C9180FBA7E8B0E08C9182F98C937D
:10058000AEE7B0E08C9183FBA7E8B0E08C9183F9F3
:100590008C93AFE7B0E08C9186FBA7E8B0E08C913C
:1005A00084F98C93A1E8B0E08C9181FBA7E8B0E0DE
:1005B0008C9185F98C93A2E8B0E08C9184FBA7E83C
:1005C000B0E08C9186F98C93A3E8B0E08C9187FB26
:1005D000A7E8B0E08C9187F98C9339C00091660050
:1005E000013281E008F480E08F93009166000133CE
:1005F00081E010F009F080E09F918923882309F4BD
:1006000026C00091660040E2041BA5E6B0E00C9312
:100610009CD0A7E8B0E00D911C91003050E0150788
:1006200081E009F080E08F93A7E8B0E00D911C9184
:100630000F3F50E0150781E009F080E09F91892B82
:10064000882309F402C0959A01C09598ABCEA7E81B
:10065000B0E08D919C91AA27BB27FDD188BB00916A
:100660006700003010F009F001C00BC080916700F6
:10067000809365006AD0A7E8B0E08D919C9199BD08
:1006800088BD00916800003010F009F001C00BC077
:10069000809168008093650058D0A7E8B0E08D9104
:1006A0009C919BBD8ABD7ECE0F921F922F923F924E
:1006B0004F925F927F92AF92BF920F931F932F93AF
:1006C0003F934F935F936F937F938F939F93AF93DA
:1006D000BF93CF93DF93EF93FF938FB78F93F894EC
:1006E00000916200013009F006C0709161007064F1
:1006F000709361000EC0023009F002C0959809C0E5
:10070000033009F006C0959870916100706870938D
:1007100061008F918FBFFF91EF91DF91CF91BF91DA
:10072000AF919F918F917F916F915F914F913F9189
:100730002F911F910F91BF90AF907F905F904F903E
:100740003F902F901F900F901895009165004BE0FF
:10075000BDD1A9E8B0E04C93A9E8B0E08C918B50F2
:100760008C9380E090E0A7E8B0E08D939C9380E0CC
:1007700080936000009160000A3010F009F023C0FF
:1007800080918900AEE6B0E07BD170D10C90082258
:10079000689409F4E89480916000A7E8B0E070D113
:1007A00065D10C9016F0092201C0082A0C92A9E824
:1007B000B0E08C918F5F8C93A0E6B0E08C918F5F5E
:1007C0008C9308F4D7CF00916900013009F041C043
:1007D000A7E8B0E00D911C910D3C50E0150708F022
:1007E00006C08DEC90E0A7E8B0E08D939C93A7E85D
:1007F000B0E00D911C910D3257E0150710F009F093
:1008000001C006C08DE297E0A7E8B0E08D939C930D
:10081000A7E8B0E00D911C914AE050E0C9D0A7E8EC
:10082000B0E00D931C93A7E8B0E00D911C9140E45B
:1008300050E0A4D0A7E8B0E04D935C93A7E8B0E007
:100840000D911C9100521040A7E8B0E00D931C934D
:100850000BC0A7E8B0E00D911C9148E050E08ED0AD
:10086000A7E8B0E04D935C930895E2E0F0E0A0E1EA
:10087000BB2780E08C937BE70ED1E3E0F0E0A0E1C2
:10088000BB2780E08C937BE706D1E1E0F0E0A0E1BC
:10089000BB278BE08C937BE7FED00895959A84E686
:1008A00090E0CAD09598E1E0F0E095D080B38095D3
:1008B000A4E6B0E08C93A4E6B0E08C918F718C93A9
:1008C000A4E6B0E00C9104FB0EF001C0E7CF089560
:1008D00080B38095A3E6B0E08C93009163004FE075
:1008E0000423AAE6B0E00C93A3E6B0E00C9104FB6D
:1008F0000EF407C0E5E0F0E0AAE6B0E07BE7CBD07D
:10090000DBCC00916A00003009F005C0ABE6B0E036
:100910008C9181BF0DC000916B0040916A00040F63
:10092000AAE6B0E00C9300916A0048E0041B01BF06
:10093000089508D03DD000FC10D0089503D01ED0FB
:1009400001F8F9CF0024E89457FF02C009D0689459
:1009500000F80BD010F80124089502D009D00895B2
:10096000509540954F5F5F4F0895E89417FF0895A5
:10097000009510950F5F1F4F68940895352F242F11
:10098000E894452B11F468940895512F402F0027C7
:10099000112780E1440F551F001F111F021B130B6D
:1009A000416018F4020F131F4E7F8A9599F708953E
:1009B000752F642F55274427FF93F1E1889405C0D4
:1009C00010F4460F571F5695479517950795FA95BA
:1009D000B9F7FF91089588EE93E02ED03197D9F7BB
:1009E00008953197F1F70895689462F80895E894AE
:1009F00062F808958F939F9385E090E00197F1F757
:100A00009F918F9108952BE0869BFECFF3DFF2DF5D
:100A1000F1DF8894869908942A9519F0879597951F
:100A2000F6CF991F881F991F881F80950895EBDFC7
:100A30008D933A95E1F70895EF93FF93EE27E82B16
:100A4000E92B31F0E0EDF7E03197F1F70197D1F7BD
:100A5000FF91EF9108950F931F9308E0881F17955A
:100A60000A95E1F7812F1F910F91089591E0882356
:100A700021F08894991F8A95E9F7892F9095089518
:100A8000883018F011968850FBCF0895E199FECF79
:100A9000EEBB3196089591E001C092E07B3751F4AE
:100AA0007FB7F894F3DF8D918DBBE29AE19A9A9526
:100AB000C9F77FBF7727089591E001C092E0E6DF94
:100AC000E09A8DB38D939A95D1F70895FF935527AA
:100AD000F8E0469508F4500F57954795FA95D1F7E9
:040AE000FF910895E5
:00000001FF
